:100000000C94B1000C94CE000C94CE000C94CE0055
:100010000C94CE000C94CE000C94CE000C94CE0028
:100020000C94CE000C94CE000C94CE000C94CE0018
:100030000C94CE000C9496010C94CE000C94CE003F
:100040000C94CE000C94CE000C94AD010C94DB010A
:100050000C94CE000C94CE000C94CE000C94CE00E8
:100060000C94CE000C94CE0000407A10F35A00A0FD
:10007000724E18090010A5D4E80000E87648170071
:1000800000E40B54020000CA9A3B000000E1F505B1
:10009000000080969800000040420F000000A086FB
:1000A00001000000102700000000E803000000002D
:1000B0006400000000000A000000000001000000D1
:1000C00000002C76D888DC674F0823DFC1DFAE59EB
:1000D000E1B1B796E5E3E453C63AE651997696E87E
:1000E000E6C28426EB898C9B62ED407C6FFCEFBC02
:1000F0009C9F40F2BAA56FA5F490055A2AF75C932D
:100100006B6CF9676DC11BFCE0E40D47FEF520E662
:10011000B500D0ED902E0300943577050080841E45
:10012000080000204E0A000000C80C333333330FA0
:10013000986E12831141EF8D2114893BE65516CF3D
:10014000FEE6DB18D1844B381BF77C1D901DA4BB49
:10015000E424203284725E228100C9F124ECA1E5FE
:100160003D2711241FBECFEFD8E0DEBFCDBF11E089
:10017000A0E0B1E0E6ECFBE002C005900D92A830F3
:10018000B107D9F721E0A8E0B1E001C01D92AF347A
:10019000B207E1F70E9406010C94E1050C940000FF
:1001A000FC01408121E030E002C0220F331F6A953C
:1001B000E2F7242B20830895FC01808121E030E0C8
:1001C00002C0220F331F6A95E2F7922F9095892380
:1001D00080838181282B21830895FC01908121E077
:1001E00030E002C0220F331F6A95E2F720952923E1
:1001F00020830895FC01408121E030E002C0220FFD
:10020000331F6A95E2F7242B20830895CF93DF9361
:10021000CDB7DEB72A970FB6F894DEBF0FBECDBFBD
:1002200065E084E290E00E94D00060E08AE290E025
:100230000E94DC0087E690E00E9405027894EFE6D9
:10024000F0E080818160808365E085E290E00E943B
:10025000FA0025E32A95F1F7000065E085E290E0D9
:100260000E94ED001092850010928400E1E8F0E019
:100270008081897F808380818160808380E4808326
:1002800080E286BB81E086BBB59BFECF10928500E5
:100290001092840081E08093810090E296BB86BB3F
:1002A0001092090110920801B59BFECF4091860083
:1002B00050918700A0910801B09109012FEF3FEF05
:1002C0000E944203640F751F811D911D0E94B6029A
:1002D00029E23CE349EE53E40E9442029E012F5F73
:1002E0003F4F7901890122E042E00E945803D70183
:1002F0000D900020E9F7119787E0E0E0F1E0019030
:100300000D928A95E1F7C7010E9435028AE00E94AA
:1003100020028DE00E9420023FEF83EC99E03150F3
:1003200080409040E1F700C000008ECF1F920F92F6
:100330000FB60F9211248F939F9380910801909193
:100340000901019690930901809308019F918F9173
:100350000F900FBE0F901F9018951F920F920FB61F
:100360000F9211242F938F939F93EF93FF9380917C
:10037000C0002091C6008C71E0910C01EF5FEF711D
:1003800090910B01E91739F0E0930C01F0E0E15F87
:10039000FE4F208301C082E090910A01892B809357
:1003A0000A01FF91EF919F918F912F910F900FBEB6
:1003B0000F901F9018951F920F920FB60F92112455
:1003C0008F939F93EF93FF9390910E0180910D0176
:1003D000981769F0E0910D01EF5FEF71E0930D0167
:1003E000F0E0E15DFE4F80818093C60005C0E1EC46
:1003F000F0E080818F7D8083FF91EF919F918F91BD
:100400000F900FBE0F901F90189510920E01109232
:100410000D0110920C0110920B01282F392F33235C
:100420001CF422E02093C00090789093C500809344
:10043000C40088E98093C10086E08093C2000895DB
:1004400020910E012F5F2F7190910D012917E1F37B
:10045000E22FF0E0E15DFE4F808320930E01E1EC9E
:10046000F0E08081806280830895CF93DF93EC0178
:1004700003C021960E94200288818111FACFDF916A
:10048000CF9108950E9456020C9408030E94010324
:1004900058F00E94FA0240F029F45F3F29F00C94D2
:1004A000F10251110C943C030C94F7020E941903C1
:1004B00068F39923B1F3552391F3951B550BBB2793
:1004C000AA2762177307840738F09F5F5F4F220FD8
:1004D000331F441FAA1FA9F335D00E2E3AF0E0E8CF
:1004E00032D091505040E695001CCAF72BD0FE2F19
:1004F00029D0660F771F881FBB1F261737074807AD
:10050000AB07B0E809F0BB0B802DBF01FF27935864
:100510005F4F3AF09E3F510578F00C94F1020C9435
:100520003C035F3FE4F3983ED4F386957795679557
:10053000B795F7959F5FC9F7880F911D9695879599
:1005400097F90895E1E0660F771F881FBB1F6217B8
:1005500073078407BA0720F0621B730B840BBA0B76
:10056000EE1F88F7E0950895E89409C097FB3EF4E4
:1005700090958095709561957F4F8F4F9F4F9923F0
:10058000A9F0F92F96E9BB279395F695879577956E
:100590006795B795F111F8CFFAF4BB0F11F460FF2E
:1005A0001BC06F5F7F4F8F4F9F4F16C0882311F086
:1005B00096E911C0772321F09EE8872F762F05C09A
:1005C000662371F096E8862F70E060E02AF09A9535
:1005D000660F771F881FDAF7880F9695879597F92A
:1005E000089597F99F6780E870E060E008959FEFB5
:1005F00080EC089500240A941616170618060906BA
:10060000089500240A941216130614060506089588
:10061000092E0394000C11F4882352F0BB0F40F410
:10062000BF2B11F460FF04C06F5F7F4F8F4F9F4F50
:10063000089557FD9058440F551F59F05F3F71F0D2
:100640004795880F97FB991F61F09F3F79F0879539
:100650000895121613061406551FF2CF4695F1DFC2
:1006600008C0161617061806991FF1CF8695710552
:10067000610508940895E894BB2766277727CB0186
:1006800097F908950E944903B7FF0895821B930BC1
:100690000895A29FB001B39FC001A39F700D811D5B
:1006A0001124911DB29F700D811D1124911D08957B
:1006B000EF920F931F93CF93DF93E80147FD02C0A2
:1006C00034E001C034E1042E000C550B57FF03C089
:1006D000519541955109E32E022F242FAE010E941E
:1006E0007803CE01DF91CF911F910F91EF90089584
:1006F000A9E0B0E0EEE7F3E00C94B0056A01122F38
:10070000B02E2BE3201720F0FF24F394F00E02C04C
:100710002CE3F22E0F2D27E0AE014F5F5F4F0E94BA
:10072000D204BC014981842F8970813031F0E1FC11
:1007300006C0E0FE06C090E205C09DE203C09BE259
:1007400001C090E05E2D507143FF3CC0911102C08A
:1007500083E001C084E0811718F4212F281B01C019
:1007600020E051110BC0F601822F30E2882319F0EE
:1007700031938150FBCFC20ED11C20E0992329F088
:10078000D6019C93F60131966F01C6010396E2FEF5
:100790000AC03EE4D6013C9341E411964C93119774
:1007A00012963C9306C03EE6F601308341E6418353
:1007B0003283FC01322F40E2332309F442C04193DB
:1007C0003150FACF42FF44C0911102C083E001C012
:1007D00084E0811718F4212F281B01C020E051115B
:1007E0000BC0F601822F30E2882319F0319381503B
:1007F000FBCFC20ED11C20E0992329F0D6019C9397
:10080000F60131966F01C6010396E2FE0BC039E492
:10081000D6013C933EE411963C93119736E4129630
:100820003C9307C039E6F60130833EE6318336E675
:100830003283FC01322F40E2332319F041933150CF
:10084000FBCFFC01E20FF11D10828EEF9FEFA6C0DF
:1008500021E030E0911102C020E030E016161706CA
:100860001CF4FB01319602C0E1E0F0E02E0F3F1FC7
:10087000BB2021F0EB2DF0E0319602C0E0E0F0E08B
:100880002E0F3F1FE12FF0E02E173F071CF4121B25
:10089000212F01C020E08E2D887159F4F601822F9E
:1008A00030E2882319F031938150FBCFC20ED11C66
:1008B00020E0992329F0D6019C93F60131966F012F
:1008C00051110BC0F601822F90E3882319F0919308
:1008D0008150FBCFC20ED11C20E00F2D060F9A8154
:1008E000342F307144FF03C0913309F401501016C6
:1008F00024F4093018F008E001C001E0AB0177FFF3
:1009000002C040E050E0FB01E41BF50BA1E0B0E0C9
:10091000AC0FBD1FEA0FFB1F8EE2A82E4B01801A01
:1009200091080B2D10E01195019511094F3FBFEF74
:100930005B0721F4D601AC9211966D01641775071F
:100940002CF08416950614F4818101C080E3415097
:1009500051093196D60111967D014017510724F0B7
:10096000D6018C936701E2CF6417750739F496338B
:1009700020F4953319F4311101C081E3F60180832D
:10098000F701822F90E2882319F091938150FBCFD9
:10099000F701E20FF11D108280E090E02996ECE073
:1009A0000C94CC05283008F027E03327DA01990FA2
:1009B000311D87FD916000966105710539F4326043
:1009C0002E5F3D9330E32A95E1F708959F3F30F085
:1009D00080387105610509F03C5F3C5F3D939130C3
:1009E00008F08068911DDF93CF931F930F93FF92C0
:1009F000EF92192F987F9695E92F96959695E90F86
:100A0000FF27EE53FF4F99273327EE24FF24A7013A
:100A1000E70105900894079428F4360FE71EF81EA6
:100A2000491F511D660F771F881F991F0694A1F754
:100A30000590079428F4E70EF81E491F561FC11DA4
:100A4000770F881F991F661F0694A1F705900794DA
:100A500028F4F80E491F561FC71FD11D880F991F74
:100A6000661F771F0694A1F70590079420F4490F9D
:100A7000561FC71FD81F990F661F771F881F069420
:100A8000A9F784911095177041F0D695C7955795A1
:100A90004795F794E7941A95C1F7E8E6F0E0689473
:100AA0001590159135916591959105907FE273951B
:100AB000E118F10A430B560BC90BD009C0F7E10C42
:100AC000F11E431F561FC91FD01D7EF4703311F451
:100AD0008A95E6CFE894015030F0080F0AF4002719
:100AE000021708F4202F2395022F7A3328F079E398
:100AF0007D932A95E9F710C07D932A9589F606948F
:100B000097956795379517951794E118F10A430B58
:100B1000560BC90BD00998F023957E9173957A33C3
:100B200008F070E37C932013B8F77E9170617D9399
:100B300030F0839571E37D9370E32A95E1F71124FA
:100B4000EF90FF900F911F91CF91DF91992787FD33
:100B5000909508952F923F924F925F926F927F925D
:100B60008F929F92AF92BF92CF92DF92EF92FF92BD
:100B70000F931F93CF93DF93CDB7DEB7CA1BDB0B69
:100B80000FB6F894DEBF0FBECDBF09942A8839880E
:100B900048885F846E847D848C849B84AA84B98415
:100BA000C884DF80EE80FD800C811B81AA81B98121
:100BB000CE0FD11D0FB6F894DEBF0FBECDBFED0135
:060BC0000895F894FFCF38
:080BC60020636D2020200000D7
:00000001FF
