S00C000030382D322E7372656351
S11300000C9434000C9451000C9451000C94510045
S11300100C9451000C9451000C9451000C94510018
S11300200C9451000C9451000C9451000C94510008
S11300300C9451000C9468000C9451000C945100E1
S11300400C9451000C9451000C9471010C949F0178
S11300500C9451000C9451000C9451000C945100D8
S11300600C9451000C94510011241FBECFEFD8E022
S1130070DEBFCDBF11E0A0E0B1E0EAE7F4E002C0EA
S113008005900D92A232B107D9F721E0A2E2B1E0C6
S113009001C01D92A736B207E1F70E9453000C94E9
S11300A03B020C9400000E941F0187E690E00E942E
S11300B0C901E1E8F0E080818C7F808380818460E5
S11300C08083EFE6F0E08081816080837894FFCFC5
S11300D01F920F920FB60F9211242F933F934F93B9
S11300E05F936F937F938F939F93AF93BF93EF939C
S11300F0FF93CF93DF9300D0CDB7DEB780E390E3D7
S11301009A83898380910001823079F018F48130D8
S113011041F07DC0833009F43FC0843009F473C0DA
S113012076C082E08093000175C088EB0E942E01A6
S113013080E00E944C0189EB0E942E0181E091E055
S11301400E94F7010E9457014AE0BE016F5F7F4F92
S113015090E00E940602CE0101960E94F7018FE012
S113016091E00E94F7010E9462014AE0BE016F5FC4
S11301707F4F90E00E940602CE0101960E94F70193
S11301808AE00E94E2018DE00E94E2010E946D017A
S113019083E0809300013EC088EB0E942E0182E040
S11301A00E944C0189EB0E942E0181E191E00E94A2
S11301B0F7010E9457014AE0BE016F5F7F4F90E054
S11301C00E940602CE0101960E94F7018FE091E0A1
S11301D00E94F7010E9462014AE0BE016F5F7F4FF7
S11301E090E00E940602CE0101960E94F7018AE087
S11301F00E94E2018DE00E94E2010E946D0184E010
S11302008093000107C081E08093000103C081E076
S1130210809300010F900F90DF91CF91FF91EF91A8
S1130220BF91AF919F918F917F916F915F914F910A
S11302303F912F910F900FBE0F901F90189587B18B
S11302408F7C87B988B1806388B9E9EBF0E080815D
S11302508C7F808388E98093B800089594EA909312
S1130260BC00ECEBF0E090819923ECF78093BB00A9
S113027084E88093BC00ECEBF0E080818823ECF709
S11302809091B900987F983129F081E0903419F465
S113029080E0089580E008958093BB0084E8809313
S11302A0BC00ECEBF0E080818823ECF7089584EC4B
S11302B08093BC00ECEBF0E080818823ECF7809124
S11302C0BB00089584E88093BC00ECEBF0E08081EF
S11302D08823ECF78091BB00089584E98093BC00E7
S11302E008951F920F920FB60F9211242F938F939C
S11302F09F93EF93FF938091C0002091C6008C716F
S1130300E0912401EF5FEF7190912301E91739F037
S1130310E0932401F0E0E95DFE4F208301C082E018
S113032090912201892B80932201FF91EF919F915B
S11303308F912F910F900FBE0F901F9018951F92C1
S11303400F920FB60F9211248F939F93EF93FF9305
S11303509091260180912501981769F0E09125017B
S1130360EF5FEF71E0932501F0E0E95BFE4F8081E0
S11303708093C60005C0E1ECF0E080818F7D80832E
S1130380FF91EF919F918F910F900FBE0F901F904F
S113039018951092260110922501109224011092B2
S11303A0230199231CF422E02093C00090789093B9
S11303B0C5008093C40088E98093C10086E08093DF
S11303C0C2000895209126012F5F2F71909125017D
S11303D02917E1F3E22FF0E0E95BFE4F80832093DD
S11303E02601E1ECF0E08081806280830895CF9360
S11303F0DF93EC018881882331F021960E94E20189
S113040089918111FBCFDF91CF910895BB274A30A9
S113041031F4992322F4BDE2909581959F4F0C9479
S11304201202BB27FB015527AA27880F991FAA1F71
S1130430A41710F0A41B83955051B9F7A05DAA33FB
S113044008F0A95DA193009779F7B111B1931192C6
S1130450CB010C942B02DC01FC01672F71917723F3
S1130460E1F7329704C07C916D9370836291AE176B
S10D0470BF07C8F30895F894FFCF06
S113047A010D0A48756D69646974793A0D0A002E8A
S113048A000D0A54656D70657261747572653A0D72
S105049A0A0052
S9030000FC
