S00A000030332E73726563B7
S11300000C9434000C943E000C943E000C943E007E
S11300100C943E000C943E000C943E000C943E0064
S11300200C943E000C943E000C943E000C943E0054
S11300300C943E000C943E000C943E000C943E0044
S11300400C943E000C943E000C943E000C943E0034
S11300500C943E000C943E000C943E000C943E0024
S11300600C943E000C943E0011241FBECFEFD8E048
S1130070DEBFCDBF0E9464000C948C000C94000081
S1130080FC01408121E030E002C0220F331F6A9559
S1130090E2F7242B20830895FC01408121E030E025
S11300A002C0220F331F6A95E2F7242B20830895A0
S11300B0FC01408121E030E002C0220F331F6A9529
S11300C0E2F724272083089565E084E290E00E940B
S11300D0400065E085E290E00E944C0061E087E228
S11300E090E00E94400061E088E290E00E944C00B1
S11300F02FEF84E39CE0215080409040E1F700C062
S1130100000065E085E290E00E94580061E088E22A
S10F011090E00E945800ECCFF894FFCF60
S9030000FC
