S00B00006C65642E73726563E4
S11300000C9434000C943E000C943E000C943E007E
S11300100C943E000C943E000C943E000C943E0064
S11300200C943E000C943E000C943E000C943E0054
S11300300C943E000C943E000C943E000C943E0044
S11300400C943E000C943E000C943E000C943E0034
S11300500C943E000C943E000C943E000C943E0024
S11300600C943E000C943E0011241FBECFEFD8E048
S1130070DEBFCDBF0E9440000C9425010C9400000B
S1130080259A2D9880E22FEF3EE994E221503040EA
S11300909040E1F700C0000095B1982795B92FEF83
S11300A03EE994E2215030409040E1F700C0000066
S11300B095B1982795B92FEF34E39CE02150304057
S11300C09040E1F700C0000095B1982795B92FEF53
S11300D034E39CE0215030409040E1F700C0000040
S11300E095B1982795B92FEF34E39CE02150304027
S11300F09040E1F700C0000095B1982795B92FEF23
S113010034E39CE0215030409040E1F700C000000F
S113011095B1982795B92FEF3EE994E221503040EC
S11301209040E1F700C0000095B1982795B92FEFF2
S113013034E39CE0215030409040E1F700C00000DF
S113014095B1982795B92FEF3EE994E221503040BC
S11301509040E1F700C0000095B1982795B92FEFC2
S113016034E39CE0215030409040E1F700C00000AF
S113017095B1982795B92FEF34E39CE02150304096
S11301809040E1F700C0000095B1982795B92FEF92
S113019034E39CE0215030409040E1F700C000007F
S11301A095B1982795B92FEF34E39CE02150304066
S11301B09040E1F700C0000095B1982795B92FEF62
S11301C03EE994E2215030409040E1F700C0000045
S11301D095B1982795B92FEF34E39CE02150304036
S11301E09040E1F700C0000095B1982795B92FEF32
S11301F03EE994E2215030409040E1F700C0000015
S113020095B1982795B92FEF34E39CE02150304005
S11302109040E1F700C0000095B1982795B92FEF01
S11302203EE994E2215030409040E1F700C00000E4
S113023095B1982795B92FEF32E795E521503040D5
S11102409040E1F700C000001ECFF894FFCFFD
S9030000FC
