S00C00006C6564732E7372656370
S11300000C9434000C943E000C943E000C943E007E
S11300100C943E000C943E000C943E000C943E0064
S11300200C943E000C943E000C943E000C943E0054
S11300300C943E000C943E000C943E000C943E0044
S11300400C943E000C943E000C943E000C943E0034
S11300500C943E000C943E000C943E000C943E0024
S11300600C943E000C943E0011241FBECFEFD8E048
S1130070DEBFCDBF0E9440000C945A000C940000D7
S1130080259A399A2D98419A95B180E2892785B9A4
S113009020E292E03FEF44E38CE031504040804066
S11300A0E1F700C0000085B1822785B988B18927AE
S10B00B088B9F0CFF894FFCFEA
S9030000FC
