S015000030342D696E74657272757074732E737265631E
S11300000C9434000C9446000C9446000C94460066
S11300100C9446000C9446000C9446000C94460044
S11300200C9446000C9446000C9446000C94460034
S11300300C9446000C94A4000C9446000C944600C6
S11300400C9446000C9446000C9446000C94460014
S11300500C9446000C9446000C9446000C94460004
S11300600C9446000C94460011241FBECFEFD8E038
S1130070DEBFCDBF21E0A0E0B1E001C01D92A230FF
S1130080B207E1F70E946D000C9433010C94000058
S1130090FC01408121E030E002C0220F331F6A9549
S11300A0E2F7242B20830895FC01908121E030E0C5
S11300B002C0220F331F6A95E2F72095292320837B
S11300C00895FC01408121E030E002C0220F331F7B
S11300D06A95E2F7242B2083089565E084E290E09A
S11300E00E94480065E085E290E00E94610064E0BF
S11300F084E290E00E94480064E085E290E00E947F
S1130100610063E084E290E00E94480063E085E2DD
S113011090E00E94610062E084E290E00E94480066
S113012062E085E290E00E946100E1E8F0E0808115
S11301308B7F8083808183608083EFE6F0E0808121
S1130140816080837894FFCF1F920F920FB60F9235
S113015011242F933F934F935F936F937F938F93C8
S11301609F93AF93BF93EF93FF938091000190917E
S11301700101892B51F465E085E290E00E9454006E
S113018064E085E290E00E9461008091000190911A
S11301900101019751F464E085E290E00E9454006B
S11301A065E085E290E00E946100809100019091F9
S11301B00101029751F463E085E290E00E9454004B
S11301C064E085E290E00E946100809100019091DA
S11301D00101039751F462E085E290E00E9454002B
S11301E063E085E290E00E946100809100019091BB
S11301F00101049751F463E085E290E00E94540009
S113020062E085E290E00E9461008091000190919B
S11302100101059771F464E085E290E00E945400C6
S113022063E085E290E00E94610010920101109267
S113023000018091000190910101019690930101C8
S113024080930001FF91EF91BF91AF919F918F91A6
S11302507F916F915F914F913F912F910F900FBEBE
S10D02600F901F901895F894FFCF3B
S9030000FC
