S010000048756D69646974792E73726563C7
S11300000C9434000C9451000C9451000C94510045
S11300100C9451000C9451000C9451000C94510018
S11300200C9451000C9451000C9451000C94510008
S11300300C9451000C9468000C9451000C945100E1
S11300400C9451000C9451000C94F7000C9425016D
S11300500C9451000C9451000C9451000C945100D8
S11300600C9451000C94510011241FBECFEFD8E022
S1130070DEBFCDBF11E0A0E0B1E0E6E8F3E002C0EE
S113008005900D92AE30B107D9F721E0AEE0B1E0B2
S113009001C01D92A335B207E1F70E9453000C94EE
S11300A0C1010C9400000E94B30087E690E00E9416
S11300B04F01E1E8F0E080818C7F8083808184605F
S11300C08083EFE6F0E08081816080837894FFCFC5
S11300D01F920F920FB60F9211242F933F934F93B9
S11300E05F936F937F938F939F93AF93BF93EF939C
S11300F0FF93CF93DF9300D0CDB7DEB780E390E3D7
S11301009A83898388EB0E94C20080E00E94DF000A
S113011089EB0E94C20080E091E00E947F010E946E
S1130120E9004AE0BE016F5F7F4F90E00E948C01BE
S1130130CE0101960E947F010E94F3000F900F9060
S1130140DF91CF91FF91EF91BF91AF919F918F91EB
S11301507F916F915F914F913F912F910F900FBEBF
S11301600F901F90189587B18F7C87B988B18063F1
S113017088B9E9EBF0E080818C7F808388E9809303
S1130180B800089594EA9093BC009091BC00992320
S1130190E4F78093BB0084E88093BC008091BC00AA
S11301A08823E4F78091B900887F883121F0803476
S11301B021F480E0089580E0089581E0089580931B
S11301C0BB0084E88093BC008091BC008823E4F7E2
S11301D0089584E88093BC008091BC008823E4F7F0
S11301E08091BB00089584E98093BC0008951F9218
S11301F00F920FB60F9211242F938F939F93EF9327
S1130200FF938091C0002091C6008C71E091100191
S1130210EF5FEF7190910F01E91739F0E09310014E
S1130220F0E0ED5EFE4F208301C082E090910E016C
S1130230892B80930E01FF91EF919F918F912F91C4
S11302400F900FBE0F901F9018951F920F920FB62C
S11302500F9211248F939F93EF93FF939091120128
S113026080911101981769F0E0911101EF5FEF712E
S1130270E0931101F0E0ED5CFE4F80818093C600B5
S113028005C0E1ECF0E080818F7D8083FF91EF91E8
S11302909F918F910F900FBE0F901F901895109201
S11302A01201109211011092100110920F01282FC7
S11302B0392F33231CF422E02093C00090789093CC
S11302C0C5008093C40088E98093C10086E08093D0
S11302D0C2000895209112012F5F2F719091110196
S11302E02917E1F3E22FF0E0ED5CFE4F80832093C9
S11302F01201E1ECF0E08081806280830895CF9365
S1130300DF93EC0103C021960E946A018881811168
S1130310FACFDF91CF910895BB274A3031F4992366
S113032022F4BDE2909581959F4F0C949801BB27D0
S1130330FB015527AA27880F991FAA1FA41710F09D
S1130340A41B83955051B9F7A05DAA3308F0A95DA9
S1130350A193009779F7B111B1931192CB010C9449
S1130360B101DC01FC01672F71917723E1F732972A
S113037004C07C916D9370836291AE17BF07C8F37C
S10903800895F894FFCF7C
S11103860D0A48756D69646974793A0D0A00B0
S9030000FC
