S012000030352D7365676D656E742E737265638D
S11300000C9434000C9451000C9451000C94510045
S11300100C9451000C9451000C9451000C94510018
S11300200C9451000C9451000C9451000C94510008
S11300300C9451000C9498000C9451000C945100B1
S11300400C94E6000C9451000C9451000C94510053
S11300500C9451000C9451000C9451000C945100D8
S11300600C9451000C94510011241FBECFEFD8E022
S1130070DEBFCDBF11E0A0E0B1E0EEE6F3E002C0E8
S113008005900D92AE30B107D9F721E0AEE0B1E0B2
S113009001C01D92A331B207E1F70E9478000C94CD
S11300A0B5010C940000FC01408121E030E002C065
S11300B0220F331F6A95E2F7242B20830895FC0155
S11300C0908121E030E002C0220F331F6A95E2F7ED
S11300D02095292320830895FC01408121E030E00C
S11300E002C0220F331F6A95E2F7242B2083089560
S11300F00E94320160E083E00E944201E1E8F0E006
S113010080818B7F8083808183608083EFE6F0E051
S113011080818160808385B5897F85BD85B5816057
S113012085BDEEE6F0E08081816080837894FFCF26
S11301301F920F920FB60F9211242F933F934F9358
S11301405F936F937F938F939F93AF93BF93EF933B
S1130150FF9360E0809111010E94420161E080916F
S11301600F010E9442018091110190911201893086
S11301709105B1F4109212011092110180910F01B6
S11301809091100101968630910529F09093100109
S113019080930F010AC01092100110920F0105C044
S11301A001969093120180931101FF91EF91BF91F9
S11301B0AF919F918F917F916F915F914F913F91FB
S11301C02F910F900FBE0F901F9018951F920F92B2
S11301D00FB60F9211242F933F934F935F936F9316
S11301E07F938F939F93AF93BF93EF93FF938091EC
S11301F00E018230A9F028F4882341F0813059F0AF
S11302001BC0833091F08430A9F016C060E080E018
S11302100E94420111C061E080E00E9442010CC0D2
S113022062E080E00E94420107C063E080E00E9437
S1130230420102C010920E0180910E018F5F8093E3
S11302400E01FF91EF91BF91AF919F918F917F919B
S11302506F915F914F913F912F910F900FBE0F902F
S11302601F90189564E08AE290E00E94530067E0D2
S11302708AE290E00E94530060E084E290E00E94F1
S1130280530008951F93CF93DF93E82FF0E0EC5FC2
S1130290FE4F1081E62FF0E0E050FF4FD08164E084
S11302A08BE290E00E945F0067E08BE290E00E94A6
S11302B05F0060E085E290E00E945F0085E08A953F
S11302C0F1F70000C8E010FF06C060E085E290E0AE
S11302D00E946C0005C060E085E290E00E945F002F
S11302E085E08A95F1F7000067E08BE290E00E94D8
S11302F06C0085E08A95F1F7000067E08BE290E0FE
S11303000E945F001695C150F1F6C8E0D0FF06C008
S113031060E085E290E00E946C0005C060E085E248
S113032090E00E945F0085E08A95F1F7000067E0A5
S11303308BE290E00E946C0085E08A95F1F7000062
S113034067E08BE290E00E945F00D695C150F1F621
S113035064E08BE290E00E946C0085E08A95F1F7FE
S11103600000DF91CF911F910895F894FFCF14
S111036E10204080039F250D9949411F01096D
S9030000FC
