:100000000C94B1000C94CE000C94CE000C94CE0055
:100010000C94CE000C94CE000C94CE000C94CE0028
:100020000C94CE000C94CE000C94CE000C94CE0018
:100030000C94CE000C94BC020C94CE000C94CE0018
:100040000C94CE000C94CE000C94E2020C9410039D
:100050000C94CE000C94CE000C94CE000C94CE00E8
:100060000C94CE000C94CE0000407A10F35A00A0FD
:10007000724E18090010A5D4E80000E87648170071
:1000800000E40B54020000CA9A3B000000E1F505B1
:10009000000080969800000040420F000000A086FB
:1000A00001000000102700000000E803000000002D
:1000B0006400000000000A000000000001000000D1
:1000C00000002C76D888DC674F0823DFC1DFAE59EB
:1000D000E1B1B796E5E3E453C63AE651997696E87E
:1000E000E6C28426EB898C9B62ED407C6FFCEFBC02
:1000F0009C9F40F2BAA56FA5F490055A2AF75C932D
:100100006B6CF9676DC11BFCE0E40D47FEF520E662
:10011000B500D0ED902E0300943577050080841E45
:10012000080000204E0A000000C80C333333330FA0
:10013000986E12831141EF8D2114893BE65516CF3D
:10014000FEE6DB18D1844B381BF77C1D901DA4BB49
:10015000E424203284725E228100C9F124ECA1E5FE
:100160003D2711241FBECFEFD8E0DEBFCDBF11E089
:10017000A0E0B1E0E0ECFDE002C005900D92AA31F4
:10018000B107D9F721E0AAE1B1E001C01D92A13683
:10019000B207E1F70E94FB010C94DE060C9400000C
:1001A000FC01408121E030E002C0220F331F6A953C
:1001B000E2F7242B20830895FC01808121E030E0C8
:1001C00002C0220F331F6A95E2F7922F9095892380
:1001D00080838181282B21830895FC01908121E077
:1001E00030E002C0220F331F6A95E2F720952923E1
:1001F00020830895FC01408121E030E002C0220FFD
:10020000331F6A95E2F7242B2083089585B182601D
:1002100085B985E08A95F1F7000085B18D7F85B9B4
:100220000895CF93C82F662321F085B1816085B9E9
:1002300003C085B18E7F85B98AB180618AB98AB1E0
:1002400080628AB98AB180648AB98AB180688AB9C1
:100250008BB18F778BB98BB18F7B8BB98BB18F7D46
:100260008BB98BB18F7E8BB9CC231CF48BB180689A
:100270008BB9C6FF03C08BB180648BB9C5FF03C0C7
:100280008BB180628BB9C4FF03C08BB180618BB925
:100290000E9406018BB18F778BB98BB18F7B8BB9A5
:1002A0008BB18F7D8BB98BB18F7E8BB9C3FF03C0B0
:1002B0008BB180688BB9C2FF03C08BB180648BB9EE
:1002C000C1FF03C08BB180628BB9C0FF03C08BB18B
:1002D00080618BB90E9406018BB180618BB98BB1B3
:1002E00080628BB98BB180648BB98BB180688BB91C
:1002F00087EB9BE00197F1F700C00000CF910895D4
:1003000060E00E9411010895611104C080580E94AC
:100310008001089580540E948001089581E00E9428
:100320008001089561E00E9411010895CF93DF9349
:10033000FC0103C00E949201FE01EF012196808121
:100340008111F8CFDF91CF910895CF93C82F84B159
:10035000816084B98AB180628AB984B1826084B9CB
:100360008AB180618AB98AB180628AB98AB18064AF
:100370008AB98AB180688AB98FEF99EF0197F1F74E
:1003800000C000008BB180628BB98BB180618BB9EA
:100390000E9406018FE19EE40197F1F700C0000082
:1003A0000E9406018FEF90E00197F1F700C0000076
:1003B0000E9406018FEF90E00197F1F700C0000066
:1003C0008BB18F7E8BB90E9406018FEF90E0019771
:1003D000F1F700C0000088E20E94800188E00E94DE
:1003E00080010E948E0186E00E9480018C2F0E9475
:1003F0008001CF910895CF93DF93CDB7DEB72A97D1
:100400000FB6F894DEBF0FBECDBF64E084E290E08B
:100410000E94D00064E085E290E00E94ED0065E07B
:1004200084E290E00E94DC0063E084E290E00E94BD
:10043000D00063E085E290E00E94ED008CE00E9435
:10044000A50160E081E00E94840180E091E00E94CB
:10045000960161E083E00E94840187E091E00E94C0
:10046000960160E088E00E9484018EE091E00E94A5
:10047000960161E088E00E94840180E191E00E94A1
:1004800096010E94D30287E690E00E943A0385B568
:100490008C7F85BD85B5846085BDEEE6F0E080810A
:1004A00081608083E1E8F0E08081887F8083EFE6EF
:1004B000F0E0808181608083789464E085E290E060
:1004C0000E94FA0025E32A95F1F7000064E085E236
:1004D00090E00E94ED00109285001092840081E46B
:1004E0008093810080E286BB81E086BBB59BFECF16
:1004F000109285001092840081E08093810090E248
:1005000096BB86BB10921B0110921A01B59BFECFC1
:10051000609186007091870080E090E00E94C9039E
:1005200029E23CE349EE53E40E9455039E012F5F0C
:100530003F4F7901890122E042E00E945504D70132
:100540000D900020E9F7119787E0E2E1F1E00190DA
:100550000D928A95E1F760E088E00E948401C7016E
:100560000E9496013FEF83EC99E03150804090402B
:10057000E1F700C00000A1CF1F920F920FB60F92BB
:1005800011248F939F9380911A0190911B010196E2
:1005900090931B0180931A019F918F910F900FBE32
:1005A0000F901F90189587B18F7C87B988B18063B1
:1005B00088B9E9EBF0E080818C7F808388E98093C3
:1005C000B80008951F920F920FB60F9211242F9327
:1005D0008F939F93EF93FF938091C0002091C6006B
:1005E0008C71E0911E01EF5FEF7190911D01E91791
:1005F00039F0E0931E01F0E0EF5DFE4F208301C073
:1006000082E090911C01892B80931C01FF91EF9156
:100610009F918F912F910F900FBE0F901F90189563
:100620001F920F920FB60F9211248F939F93EF9307
:10063000FF939091200180911F01981769F0E0913C
:100640001F01EF5FEF71E0931F01F0E0EF5BFE4FE2
:1006500080818093C60005C0E1ECF0E080818F7D51
:100660008083FF91EF919F918F910F900FBE0F901C
:100670001F9018951092200110921F0110921E01D8
:1006800010921D01282F392F33231CF422E02093D0
:10069000C00090789093C5008093C40088E980934F
:1006A000C10086E08093C20008950E9469030C9403
:1006B0001B040E94140458F00E940D0440F029F419
:1006C0005F3F29F00C94040451110C944F040C94D6
:1006D0000A040E942C0468F39923B1F3552391F383
:1006E000951B550BBB27AA2762177307840738F0A1
:1006F0009F5F5F4F220F331F441FAA1FA9F335D0FE
:100700000E2E3AF0E0E832D091505040E695001CB1
:10071000CAF72BD0FE2F29D0660F771F881FBB1F6B
:10072000261737074807AB07B0E809F0BB0B802D49
:10073000BF01FF2793585F4F3AF09E3F510578F075
:100740000C9404040C944F045F3FE4F3983ED4F3FC
:10075000869577956795B795F7959F5FC9F7880F49
:10076000911D9695879597F90895E1E0660F771F9B
:10077000881FBB1F621773078407BA0720F0621B2C
:10078000730B840BBA0BEE1F88F7E0950895E8947D
:1007900009C097FB3EF490958095709561957F4FC9
:1007A0008F4F9F4F9923A9F0F92F96E9BB27939577
:1007B000F695879577956795B795F111F8CFFAF487
:1007C000BB0F11F460FF1BC06F5F7F4F8F4F9F4FB8
:1007D00016C0882311F096E911C0772321F09EE816
:1007E000872F762F05C0662371F096E8862F70E07C
:1007F00060E02AF09A95660F771F881FDAF7880F56
:100800009695879597F9089597F99F6780E870E026
:1008100060E008959FEF80EC089500240A94161676
:10082000170618060906089500240A9412161306DE
:10083000140605060895092E0394000C11F488236C
:1008400052F0BB0F40F4BF2B11F460FF04C06F5F88
:100850007F4F8F4F9F4F089557FD9058440F551F5E
:1008600059F05F3F71F04795880F97FB991F61F032
:100870009F3F79F087950895121613061406551FA9
:10088000F2CF4695F1DF08C0161617061806991F15
:10089000F1CF86957105610508940895E894BB270A
:1008A00066277727CB0197F90895EF920F931F934F
:1008B000CF93DF93E80147FD02C034E001C034E18B
:1008C000042E000C550B57FF03C05195419551095B
:1008D000E32E022F242FAE010E947504CE01DF917A
:1008E000CF911F910F91EF900895A9E0B0E0EBE751
:1008F000F4E00C94AD066A01122FB02E2BE3201702
:1009000020F0FF24F394F00E02C02CE3F22E0F2D02
:1009100027E0AE014F5F5F4F0E94CF05BC014981C8
:10092000842F8970813031F0E1FC06C0E0FE06C002
:1009300090E205C09DE203C09BE201C090E05E2D05
:10094000507143FF3CC0911102C083E001C084E0BC
:10095000811718F4212F281B01C020E051110BC072
:10096000F601822F30E2882319F031938150FBCFBA
:10097000C20ED11C20E0992329F0D6019C93F601E8
:1009800031966F01C6010396E2FE0AC03EE4D6012D
:100990003C9341E411964C93119712963C9306C0F8
:1009A0003EE6F601308341E641833283FC01322F7B
:1009B00040E2332309F442C041933150FACF42FF61
:1009C00044C0911102C083E001C084E0811718F493
:1009D000212F281B01C020E051110BC0F601822FEE
:1009E00030E2882319F031938150FBCFC20ED11C25
:1009F00020E0992329F0D6019C93F60131966F01EE
:100A0000C6010396E2FE0BC039E4D6013C933EE4F6
:100A100011963C93119736E412963C9307C039E641
:100A2000F60130833EE6318336E63283FC01322F15
:100A300040E2332319F041933150FBCFFC01E20F28
:100A4000F11D10828EEF9FEFA6C021E030E09111E2
:100A500002C020E030E0161617061CF4FB013196A8
:100A600002C0E1E0F0E02E0F3F1FBB2021F0EB2D94
:100A7000F0E0319602C0E0E0F0E02E0F3F1FE12FE2
:100A8000F0E02E173F071CF4121B212F01C020E0BD
:100A90008E2D887159F4F601822F30E2882319F0E7
:100AA00031938150FBCFC20ED11C20E0992329F055
:100AB000D6019C93F60131966F0151110BC0F601DE
:100AC000822F90E3882319F091938150FBCFC20EBF
:100AD000D11C20E00F2D060F9A81342F307144FF76
:100AE00003C0913309F40150101624F4093018F0B2
:100AF00008E001C001E0AB0177FF02C040E050E038
:100B0000FB01E41BF50BA1E0B0E0AC0FBD1FEA0F49
:100B1000FB1F8EE2A82E4B01801A91080B2D10E0CE
:100B20001195019511094F3FBFEF5B0721F4D601E5
:100B3000AC9211966D01641775072CF0841695061A
:100B400014F4818101C080E3415051093196D601EE
:100B500011967D014017510724F0D6018C9367014F
:100B6000E2CF6417750739F4963320F4953319F4FE
:100B7000311101C081E3F6018083F701822F90E2F9
:100B8000882319F091938150FBCFF701E20FF11DFB
:100B9000108280E090E02996ECE00C94C9062830A1
:100BA00008F027E03327DA01990F311D87FD9160A6
:100BB00000966105710539F432602E5F3D9330E394
:100BC0002A95E1F708959F3F30F08038710561055F
:100BD00009F03C5F3C5F3D93913008F08068911DC7
:100BE000DF93CF931F930F93FF92EF92192F987F6C
:100BF0009695E92F96959695E90FFF27EE53FF4FAF
:100C000099273327EE24FF24A701E70105900894D4
:100C1000079428F4360FE71EF81E491F511D660F72
:100C2000771F881F991F0694A1F70590079428F451
:100C3000E70EF81E491F561FC11D770F881F991F09
:100C4000661F0694A1F70590079428F4F80E491F33
:100C5000561FC71FD11D880F991F661F771F069447
:100C6000A1F70590079420F4490F561FC71FD81FFE
:100C7000990F661F771F881F0694A9F78491109516
:100C8000177041F0D695C79557954795F794E79417
:100C90001A95C1F7E8E6F0E0689415901591359142
:100CA0006591959105907FE27395E118F10A430BE8
:100CB000560BC90BD009C0F7E10CF11E431F561F9C
:100CC000C91FD01D7EF4703311F48A95E6CFE894E5
:100CD000015030F0080F0AF40027021708F4202F03
:100CE0002395022F7A3328F079E37D932A95E9F74B
:100CF00010C07D932A9589F6069497956795379548
:100D000017951794E118F10A430B560BC90BD0093C
:100D100098F023957E9173957A3308F070E37C9375
:100D20002013B8F77E9170617D9330F0839571E365
:100D30007D9370E32A95E1F71124EF90FF900F91D6
:100D40001F91CF91DF91992787FD909508952F925C
:100D50003F924F925F926F927F928F929F92AF924B
:100D6000BF92CF92DF92EF92FF920F931F93CF9398
:100D7000DF93CDB7DEB7CA1BDB0B0FB6F894DEBF2F
:100D80000FBECDBF09942A88398848885F846E8455
:100D90007D848C849B84AA84B984C884DF80EE809F
:100DA000FD800C811B81AA81B981CE0FD11D0FB6A8
:100DB000F894DEBF0FBECDBFED010895F894FFCFCC
:100DC0006C6576656C3A0073746174653A00610015
:0A0DD000620020636D202020000067
:00000001FF
